{
  "_format": "hh-sol-artifact-1",
  "contractName": "ReputationRegistry",
  "sourceName": "contracts/ReputationRegistry.sol",
  "abi": [
    {
      "anonymous": false,
      "inputs": [
        {
          "indexed": true,
          "internalType": "address",
          "name": "freelancer",
          "type": "address"
        },
        {
          "indexed": true,
          "internalType": "address",
          "name": "issuer",
          "type": "address"
        },
        {
          "indexed": false,
          "internalType": "bytes32",
          "name": "credentialHash",
          "type": "bytes32"
        },
        {
          "indexed": false,
          "internalType": "uint256",
          "name": "weight",
          "type": "uint256"
        }
      ],
      "name": "CredentialRegistered",
      "type": "event"
    },
    {
      "inputs": [
        {
          "internalType": "address",
          "name": "_freelancer",
          "type": "address"
        }
      ],
      "name": "calculateReputationScore",
      "outputs": [
        {
          "internalType": "uint256",
          "name": "",
          "type": "uint256"
        }
      ],
      "stateMutability": "view",
      "type": "function"
    },
    {
      "inputs": [
        {
          "internalType": "address",
          "name": "",
          "type": "address"
        },
        {
          "internalType": "uint256",
          "name": "",
          "type": "uint256"
        }
      ],
      "name": "freelancerCredentialDetails",
      "outputs": [
        {
          "internalType": "bytes32",
          "name": "credentialHash",
          "type": "bytes32"
        },
        {
          "internalType": "address",
          "name": "issuer",
          "type": "address"
        },
        {
          "internalType": "uint256",
          "name": "issuedAt",
          "type": "uint256"
        },
        {
          "internalType": "uint256",
          "name": "weight",
          "type": "uint256"
        }
      ],
      "stateMutability": "view",
      "type": "function"
    },
    {
      "inputs": [
        {
          "internalType": "address",
          "name": "",
          "type": "address"
        },
        {
          "internalType": "uint256",
          "name": "",
          "type": "uint256"
        }
      ],
      "name": "freelancerCredentials",
      "outputs": [
        {
          "internalType": "bytes32",
          "name": "",
          "type": "bytes32"
        }
      ],
      "stateMutability": "view",
      "type": "function"
    },
    {
      "inputs": [
        {
          "internalType": "address",
          "name": "_freelancer",
          "type": "address"
        }
      ],
      "name": "getCredentialCount",
      "outputs": [
        {
          "internalType": "uint256",
          "name": "",
          "type": "uint256"
        }
      ],
      "stateMutability": "view",
      "type": "function"
    },
    {
      "inputs": [
        {
          "internalType": "address",
          "name": "_freelancer",
          "type": "address"
        },
        {
          "internalType": "uint256",
          "name": "_index",
          "type": "uint256"
        }
      ],
      "name": "getCredentialDetails",
      "outputs": [
        {
          "internalType": "bytes32",
          "name": "hash",
          "type": "bytes32"
        },
        {
          "internalType": "address",
          "name": "issuer",
          "type": "address"
        },
        {
          "internalType": "uint256",
          "name": "issuedAt",
          "type": "uint256"
        },
        {
          "internalType": "uint256",
          "name": "weight",
          "type": "uint256"
        }
      ],
      "stateMutability": "view",
      "type": "function"
    },
    {
      "inputs": [
        {
          "internalType": "address",
          "name": "_freelancer",
          "type": "address"
        }
      ],
      "name": "getCredentialHashes",
      "outputs": [
        {
          "internalType": "bytes32[]",
          "name": "",
          "type": "bytes32[]"
        }
      ],
      "stateMutability": "view",
      "type": "function"
    },
    {
      "inputs": [
        {
          "internalType": "address",
          "name": "_freelancer",
          "type": "address"
        },
        {
          "internalType": "bytes32",
          "name": "_credentialHash",
          "type": "bytes32"
        },
        {
          "internalType": "address",
          "name": "_issuer",
          "type": "address"
        },
        {
          "internalType": "uint256",
          "name": "_weight",
          "type": "uint256"
        }
      ],
      "name": "registerCredential",
      "outputs": [],
      "stateMutability": "nonpayable",
      "type": "function"
    }
  ],
  "bytecode": "0x608060405234801561001057600080fd5b5061075e806100206000396000f3fe608060405234801561001057600080fd5b506004361061007d5760003560e01c80632c55eb231161005b5780632c55eb23146100db5780632d4059951461011657806383f30c271461013f578063eb292b3e1461015457600080fd5b80630a8fa8251461008257806318635061146100a857806320aa0cf8146100bb575b600080fd5b6100956100903660046105d6565b610167565b6040519081526020015b60405180910390f35b6100956100b63660046105f8565b61022e565b6100ce6100c93660046105d6565b61025f565b60405161009f9190610622565b6100ee6100e93660046105f8565b6102c9565b604080519485526001600160a01b03909316602085015291830152606082015260800161009f565b6100956101243660046105d6565b6001600160a01b031660009081526020819052604090205490565b61015261014d366004610666565b610398565b005b6100ee6101623660046105f8565b61056b565b6001600160a01b038116600090815260016020526040812080548203610191575061138892915050565b60008060005b83548110156101f75760008482815481106101b4576101b46106aa565b906000526020600020906004020160030154905080846101d491906106d6565b93506101e2816127106106ef565b6101ec90846106d6565b925050600101610197565b508160000361020c5750611388949350505050565b825460649061021b9083610706565b6102259190610706565b95945050505050565b6000602052816000526040600020818154811061024a57600080fd5b90600052602060002001600091509150505481565b6001600160a01b038116600090815260208181526040918290208054835181840281018401909452808452606093928301828280156102bd57602002820191906000526020600020905b8154815260200190600101908083116102a9575b50505050509050919050565b6001600160a01b03821660009081526001602052604081205481908190819085106103315760405162461bcd60e51b8152602060048201526013602482015272496e646578206f7574206f6620626f756e647360681b60448201526064015b60405180910390fd5b6001600160a01b038616600090815260016020526040812080548790811061035b5761035b6106aa565b60009182526020909120600490910201805460018201546002830154600390930154919a6001600160a01b03909116995091975095509350505050565b6001600160a01b0384166103ee5760405162461bcd60e51b815260206004820152601a60248201527f496e76616c696420667265656c616e63657220616464726573730000000000006044820152606401610328565b6127108111156104405760405162461bcd60e51b815260206004820152601a60248201527f5765696768742063616e6e6f74206578636565642031303030300000000000006044820152606401610328565b8261048d5760405162461bcd60e51b815260206004820152601760248201527f496e76616c69642063726564656e7469616c20686173680000000000000000006044820152606401610328565b6001600160a01b038481166000818152602081815260408083208054600180820183559185528385200189905584845280835281842082516080810184528a815289881681860181815242838701908152606084018c815285548088018755958a5298889020935160049095029093019384555193830180546001600160a01b0319169490991693909317909755955160028701559251600390950194909455835187815290810185905290927fa67f791757f9612ebf4228ce64ba4feb0a9ea7a3c1b1f6e046e3374e3348cf03910160405180910390a350505050565b6001602052816000526040600020818154811061058757600080fd5b600091825260209091206004909102018054600182015460028301546003909301549194506001600160a01b0316925084565b80356001600160a01b03811681146105d157600080fd5b919050565b6000602082840312156105e857600080fd5b6105f1826105ba565b9392505050565b6000806040838503121561060b57600080fd5b610614836105ba565b946020939093013593505050565b6020808252825182820181905260009190848201906040850190845b8181101561065a5783518352928401929184019160010161063e565b50909695505050505050565b6000806000806080858703121561067c57600080fd5b610685856105ba565b93506020850135925061069a604086016105ba565b9396929550929360600135925050565b634e487b7160e01b600052603260045260246000fd5b634e487b7160e01b600052601160045260246000fd5b808201808211156106e9576106e96106c0565b92915050565b80820281158282048414176106e9576106e96106c0565b60008261072357634e487b7160e01b600052601260045260246000fd5b50049056fea2646970667358221220638f08d73422a3e94d7c1b7e3a58e5f29cf5d494cff80354134dda6b1d147c5264736f6c63430008180033",
  "linkReferences": {},
  "deployedLinkReferences": {}
}