{"contracts/ReputationRegistry.sol":{"ReputationRegistry":{"abi":[{"anonymous":false,"inputs":[{"indexed":true,"internalType":"address","name":"freelancer","type":"address"},{"indexed":true,"internalType":"address","name":"issuer","type":"address"},{"indexed":false,"internalType":"bytes32","name":"credentialHash","type":"bytes32"},{"indexed":false,"internalType":"uint256","name":"weight","type":"uint256"}],"name":"CredentialRegistered","type":"event"},{"inputs":[{"internalType":"address","name":"_freelancer","type":"address"}],"name":"calculateReputationScore","outputs":[{"internalType":"uint256","name":"","type":"uint256"}],"stateMutability":"view","type":"function"},{"inputs":[{"internalType":"address","name":"","type":"address"},{"internalType":"uint256","name":"","type":"uint256"}],"name":"freelancerCredentialDetails","outputs":[{"internalType":"bytes32","name":"credentialHash","type":"bytes32"},{"internalType":"address","name":"issuer","type":"address"},{"internalType":"uint256","name":"issuedAt","type":"uint256"},{"internalType":"uint256","name":"weight","type":"uint256"}],"stateMutability":"view","type":"function"},{"inputs":[{"internalType":"address","name":"","type":"address"},{"internalType":"uint256","name":"","type":"uint256"}],"name":"freelancerCredentials","outputs":[{"internalType":"bytes32","name":"","type":"bytes32"}],"stateMutability":"view","type":"function"},{"inputs":[{"internalType":"address","name":"_freelancer","type":"address"}],"name":"getCredentialCount","outputs":[{"internalType":"uint256","name":"","type":"uint256"}],"stateMutability":"view","type":"function"},{"inputs":[{"internalType":"address","name":"_freelancer","type":"address"},{"internalType":"uint256","name":"_index","type":"uint256"}],"name":"getCredentialDetails","outputs":[{"internalType":"bytes32","name":"hash","type":"bytes32"},{"internalType":"address","name":"issuer","type":"address"},{"internalType":"uint256","name":"issuedAt","type":"uint256"},{"internalType":"uint256","name":"weight","type":"uint256"}],"stateMutability":"view","type":"function"},{"inputs":[{"internalType":"address","name":"_freelancer","type":"address"}],"name":"getCredentialHashes","outputs":[{"internalType":"bytes32[]","name":"","type":"bytes32[]"}],"stateMutability":"view","type":"function"},{"inputs":[{"internalType":"address","name":"_freelancer","type":"address"},{"internalType":"bytes32","name":"_credentialHash","type":"bytes32"},{"internalType":"address","name":"_issuer","type":"address"},{"internalType":"uint256","name":"_weight","type":"uint256"}],"name":"registerCredential","outputs":[],"stateMutability":"nonpayable","type":"function"}],"evm":{"bytecode":{"linkReferences":{},"object":"608060405234801561001057600080fd5b5061075e806100206000396000f3fe608060405234801561001057600080fd5b506004361061007d5760003560e01c80632c55eb231161005b5780632c55eb23146100db5780632d4059951461011657806383f30c271461013f578063eb292b3e1461015457600080fd5b80630a8fa8251461008257806318635061146100a857806320aa0cf8146100bb575b600080fd5b6100956100903660046105d6565b610167565b6040519081526020015b60405180910390f35b6100956100b63660046105f8565b61022e565b6100ce6100c93660046105d6565b61025f565b60405161009f9190610622565b6100ee6100e93660046105f8565b6102c9565b604080519485526001600160a01b03909316602085015291830152606082015260800161009f565b6100956101243660046105d6565b6001600160a01b031660009081526020819052604090205490565b61015261014d366004610666565b610398565b005b6100ee6101623660046105f8565b61056b565b6001600160a01b038116600090815260016020526040812080548203610191575061138892915050565b60008060005b83548110156101f75760008482815481106101b4576101b46106aa565b906000526020600020906004020160030154905080846101d491906106d6565b93506101e2816127106106ef565b6101ec90846106d6565b925050600101610197565b508160000361020c5750611388949350505050565b825460649061021b9083610706565b6102259190610706565b95945050505050565b6000602052816000526040600020818154811061024a57600080fd5b90600052602060002001600091509150505481565b6001600160a01b038116600090815260208181526040918290208054835181840281018401909452808452606093928301828280156102bd57602002820191906000526020600020905b8154815260200190600101908083116102a9575b50505050509050919050565b6001600160a01b03821660009081526001602052604081205481908190819085106103315760405162461bcd60e51b8152602060048201526013602482015272496e646578206f7574206f6620626f756e647360681b60448201526064015b60405180910390fd5b6001600160a01b038616600090815260016020526040812080548790811061035b5761035b6106aa565b60009182526020909120600490910201805460018201546002830154600390930154919a6001600160a01b03909116995091975095509350505050565b6001600160a01b0384166103ee5760405162461bcd60e51b815260206004820152601a60248201527f496e76616c696420667265656c616e63657220616464726573730000000000006044820152606401610328565b6127108111156104405760405162461bcd60e51b815260206004820152601a60248201527f5765696768742063616e6e6f74206578636565642031303030300000000000006044820152606401610328565b8261048d5760405162461bcd60e51b815260206004820152601760248201527f496e76616c69642063726564656e7469616c20686173680000000000000000006044820152606401610328565b6001600160a01b038481166000818152602081815260408083208054600180820183559185528385200189905584845280835281842082516080810184528a815289881681860181815242838701908152606084018c815285548088018755958a5298889020935160049095029093019384555193830180546001600160a01b0319169490991693909317909755955160028701559251600390950194909455835187815290810185905290927fa67f791757f9612ebf4228ce64ba4feb0a9ea7a3c1b1f6e046e3374e3348cf03910160405180910390a350505050565b6001602052816000526040600020818154811061058757600080fd5b600091825260209091206004909102018054600182015460028301546003909301549194506001600160a01b0316925084565b80356001600160a01b03811681146105d157600080fd5b919050565b6000602082840312156105e857600080fd5b6105f1826105ba565b9392505050565b6000806040838503121561060b57600080fd5b610614836105ba565b946020939093013593505050565b6020808252825182820181905260009190848201906040850190845b8181101561065a5783518352928401929184019160010161063e565b50909695505050505050565b6000806000806080858703121561067c57600080fd5b610685856105ba565b93506020850135925061069a604086016105ba565b9396929550929360600135925050565b634e487b7160e01b600052603260045260246000fd5b634e487b7160e01b600052601160045260246000fd5b808201808211156106e9576106e96106c0565b92915050565b80820281158282048414176106e9576106e96106c0565b60008261072357634e487b7160e01b600052601260045260246000fd5b50049056fea2646970667358221220638f08d73422a3e94d7c1b7e3a58e5f29cf5d494cff80354134dda6b1d147c5264736f6c63430008180033","opcodes":"PUSH1 0x80 PUSH1 0x40 MSTORE CALLVALUE DUP1 ISZERO PUSH2 0x10 JUMPI PUSH1 0x0 DUP1 REVERT JUMPDEST POP PUSH2 0x75E DUP1 PUSH2 0x20 PUSH1 0x0 CODECOPY PUSH1 0x0 RETURN INVALID PUSH1 0x80 PUSH1 0x40 MSTORE CALLVALUE DUP1 ISZERO PUSH2 0x10 JUMPI PUSH1 0x0 DUP1 REVERT JUMPDEST POP PUSH1 0x4 CALLDATASIZE LT PUSH2 0x7D JUMPI PUSH1 0x0 CALLDATALOAD PUSH1 0xE0 SHR DUP1 PUSH4 0x2C55EB23 GT PUSH2 0x5B JUMPI DUP1 PUSH4 0x2C55EB23 EQ PUSH2 0xDB JUMPI DUP1 PUSH4 0x2D405995 EQ PUSH2 0x116 JUMPI DUP1 PUSH4 0x83F30C27 EQ PUSH2 0x13F JUMPI DUP1 PUSH4 0xEB292B3E EQ PUSH2 0x154 JUMPI PUSH1 0x0 DUP1 REVERT JUMPDEST DUP1 PUSH4 0xA8FA825 EQ PUSH2 0x82 JUMPI DUP1 PUSH4 0x18635061 EQ PUSH2 0xA8 JUMPI DUP1 PUSH4 0x20AA0CF8 EQ PUSH2 0xBB JUMPI JUMPDEST PUSH1 0x0 DUP1 REVERT JUMPDEST PUSH2 0x95 PUSH2 0x90 CALLDATASIZE PUSH1 0x4 PUSH2 0x5D6 JUMP JUMPDEST PUSH2 0x167 JUMP JUMPDEST PUSH1 0x40 MLOAD SWAP1 DUP2 MSTORE PUSH1 0x20 ADD JUMPDEST PUSH1 0x40 MLOAD DUP1 SWAP2 SUB SWAP1 RETURN JUMPDEST PUSH2 0x95 PUSH2 0xB6 CALLDATASIZE PUSH1 0x4 PUSH2 0x5F8 JUMP JUMPDEST PUSH2 0x22E JUMP JUMPDEST PUSH2 0xCE PUSH2 0xC9 CALLDATASIZE PUSH1 0x4 PUSH2 0x5D6 JUMP JUMPDEST PUSH2 0x25F JUMP JUMPDEST PUSH1 0x40 MLOAD PUSH2 0x9F SWAP2 SWAP1 PUSH2 0x622 JUMP JUMPDEST PUSH2 0xEE PUSH2 0xE9 CALLDATASIZE PUSH1 0x4 PUSH2 0x5F8 JUMP JUMPDEST PUSH2 0x2C9 JUMP JUMPDEST PUSH1 0x40 DUP1 MLOAD SWAP5 DUP6 MSTORE PUSH1 0x1 PUSH1 0x1 PUSH1 0xA0 SHL SUB SWAP1 SWAP4 AND PUSH1 0x20 DUP6 ADD MSTORE SWAP2 DUP4 ADD MSTORE PUSH1 0x60 DUP3 ADD MSTORE PUSH1 0x80 ADD PUSH2 0x9F JUMP JUMPDEST PUSH2 0x95 PUSH2 0x124 CALLDATASIZE PUSH1 0x4 PUSH2 0x5D6 JUMP JUMPDEST PUSH1 0x1 PUSH1 0x1 PUSH1 0xA0 SHL SUB AND PUSH1 0x0 SWAP1 DUP2 MSTORE PUSH1 0x20 DUP2 SWAP1 MSTORE PUSH1 0x40 SWAP1 KECCAK256 SLOAD SWAP1 JUMP JUMPDEST PUSH2 0x152 PUSH2 0x14D CALLDATASIZE PUSH1 0x4 PUSH2 0x666 JUMP JUMPDEST PUSH2 0x398 JUMP JUMPDEST STOP JUMPDEST PUSH2 0xEE PUSH2 0x162 CALLDATASIZE PUSH1 0x4 PUSH2 0x5F8 JUMP JUMPDEST PUSH2 0x56B JUMP JUMPDEST PUSH1 0x1 PUSH1 0x1 PUSH1 0xA0 SHL SUB DUP2 AND PUSH1 0x0 SWAP1 DUP2 MSTORE PUSH1 0x1 PUSH1 0x20 MSTORE PUSH1 0x40 DUP2 KECCAK256 DUP1 SLOAD DUP3 SUB PUSH2 0x191 JUMPI POP PUSH2 0x1388 SWAP3 SWAP2 POP POP JUMP JUMPDEST PUSH1 0x0 DUP1 PUSH1 0x0 JUMPDEST DUP4 SLOAD DUP2 LT ISZERO PUSH2 0x1F7 JUMPI PUSH1 0x0 DUP5 DUP3 DUP2 SLOAD DUP2 LT PUSH2 0x1B4 JUMPI PUSH2 0x1B4 PUSH2 0x6AA JUMP JUMPDEST SWAP1 PUSH1 0x0 MSTORE PUSH1 0x20 PUSH1 0x0 KECCAK256 SWAP1 PUSH1 0x4 MUL ADD PUSH1 0x3 ADD SLOAD SWAP1 POP DUP1 DUP5 PUSH2 0x1D4 SWAP2 SWAP1 PUSH2 0x6D6 JUMP JUMPDEST SWAP4 POP PUSH2 0x1E2 DUP2 PUSH2 0x2710 PUSH2 0x6EF JUMP JUMPDEST PUSH2 0x1EC SWAP1 DUP5 PUSH2 0x6D6 JUMP JUMPDEST SWAP3 POP POP PUSH1 0x1 ADD PUSH2 0x197 JUMP JUMPDEST POP DUP2 PUSH1 0x0 SUB PUSH2 0x20C JUMPI POP PUSH2 0x1388 SWAP5 SWAP4 POP POP POP POP JUMP JUMPDEST DUP3 SLOAD PUSH1 0x64 SWAP1 PUSH2 0x21B SWAP1 DUP4 PUSH2 0x706 JUMP JUMPDEST PUSH2 0x225 SWAP2 SWAP1 PUSH2 0x706 JUMP JUMPDEST SWAP6 SWAP5 POP POP POP POP POP JUMP JUMPDEST PUSH1 0x0 PUSH1 0x20 MSTORE DUP2 PUSH1 0x0 MSTORE PUSH1 0x40 PUSH1 0x0 KECCAK256 DUP2 DUP2 SLOAD DUP2 LT PUSH2 0x24A JUMPI PUSH1 0x0 DUP1 REVERT JUMPDEST SWAP1 PUSH1 0x0 MSTORE PUSH1 0x20 PUSH1 0x0 KECCAK256 ADD PUSH1 0x0 SWAP2 POP SWAP2 POP POP SLOAD DUP2 JUMP JUMPDEST PUSH1 0x1 PUSH1 0x1 PUSH1 0xA0 SHL SUB DUP2 AND PUSH1 0x0 SWAP1 DUP2 MSTORE PUSH1 0x20 DUP2 DUP2 MSTORE PUSH1 0x40 SWAP2 DUP3 SWAP1 KECCAK256 DUP1 SLOAD DUP4 MLOAD DUP2 DUP5 MUL DUP2 ADD DUP5 ADD SWAP1 SWAP5 MSTORE DUP1 DUP5 MSTORE PUSH1 0x60 SWAP4 SWAP3 DUP4 ADD DUP3 DUP3 DUP1 ISZERO PUSH2 0x2BD JUMPI PUSH1 0x20 MUL DUP3 ADD SWAP2 SWAP1 PUSH1 0x0 MSTORE PUSH1 0x20 PUSH1 0x0 KECCAK256 SWAP1 JUMPDEST DUP2 SLOAD DUP2 MSTORE PUSH1 0x20 ADD SWAP1 PUSH1 0x1 ADD SWAP1 DUP1 DUP4 GT PUSH2 0x2A9 JUMPI JUMPDEST POP POP POP POP POP SWAP1 POP SWAP2 SWAP1 POP JUMP JUMPDEST PUSH1 0x1 PUSH1 0x1 PUSH1 0xA0 SHL SUB DUP3 AND PUSH1 0x0 SWAP1 DUP2 MSTORE PUSH1 0x1 PUSH1 0x20 MSTORE PUSH1 0x40 DUP2 KECCAK256 SLOAD DUP2 SWAP1 DUP2 SWAP1 DUP2 SWAP1 DUP6 LT PUSH2 0x331 JUMPI PUSH1 0x40 MLOAD PUSH3 0x461BCD PUSH1 0xE5 SHL DUP2 MSTORE PUSH1 0x20 PUSH1 0x4 DUP3 ADD MSTORE PUSH1 0x13 PUSH1 0x24 DUP3 ADD MSTORE PUSH19 0x496E646578206F7574206F6620626F756E6473 PUSH1 0x68 SHL PUSH1 0x44 DUP3 ADD MSTORE PUSH1 0x64 ADD JUMPDEST PUSH1 0x40 MLOAD DUP1 SWAP2 SUB SWAP1 REVERT JUMPDEST PUSH1 0x1 PUSH1 0x1 PUSH1 0xA0 SHL SUB DUP7 AND PUSH1 0x0 SWAP1 DUP2 MSTORE PUSH1 0x1 PUSH1 0x20 MSTORE PUSH1 0x40 DUP2 KECCAK256 DUP1 SLOAD DUP8 SWAP1 DUP2 LT PUSH2 0x35B JUMPI PUSH2 0x35B PUSH2 0x6AA JUMP JUMPDEST PUSH1 0x0 SWAP2 DUP3 MSTORE PUSH1 0x20 SWAP1 SWAP2 KECCAK256 PUSH1 0x4 SWAP1 SWAP2 MUL ADD DUP1 SLOAD PUSH1 0x1 DUP3 ADD SLOAD PUSH1 0x2 DUP4 ADD SLOAD PUSH1 0x3 SWAP1 SWAP4 ADD SLOAD SWAP2 SWAP11 PUSH1 0x1 PUSH1 0x1 PUSH1 0xA0 SHL SUB SWAP1 SWAP2 AND SWAP10 POP SWAP2 SWAP8 POP SWAP6 POP SWAP4 POP POP POP POP JUMP JUMPDEST PUSH1 0x1 PUSH1 0x1 PUSH1 0xA0 SHL SUB DUP5 AND PUSH2 0x3EE JUMPI PUSH1 0x40 MLOAD PUSH3 0x461BCD PUSH1 0xE5 SHL DUP2 MSTORE PUSH1 0x20 PUSH1 0x4 DUP3 ADD MSTORE PUSH1 0x1A PUSH1 0x24 DUP3 ADD MSTORE PUSH32 0x496E76616C696420667265656C616E6365722061646472657373000000000000 PUSH1 0x44 DUP3 ADD MSTORE PUSH1 0x64 ADD PUSH2 0x328 JUMP JUMPDEST PUSH2 0x2710 DUP2 GT ISZERO PUSH2 0x440 JUMPI PUSH1 0x40 MLOAD PUSH3 0x461BCD PUSH1 0xE5 SHL DUP2 MSTORE PUSH1 0x20 PUSH1 0x4 DUP3 ADD MSTORE PUSH1 0x1A PUSH1 0x24 DUP3 ADD MSTORE PUSH32 0x5765696768742063616E6E6F7420657863656564203130303030000000000000 PUSH1 0x44 DUP3 ADD MSTORE PUSH1 0x64 ADD PUSH2 0x328 JUMP JUMPDEST DUP3 PUSH2 0x48D JUMPI PUSH1 0x40 MLOAD PUSH3 0x461BCD PUSH1 0xE5 SHL DUP2 MSTORE PUSH1 0x20 PUSH1 0x4 DUP3 ADD MSTORE PUSH1 0x17 PUSH1 0x24 DUP3 ADD MSTORE PUSH32 0x496E76616C69642063726564656E7469616C2068617368000000000000000000 PUSH1 0x44 DUP3 ADD MSTORE PUSH1 0x64 ADD PUSH2 0x328 JUMP JUMPDEST PUSH1 0x1 PUSH1 0x1 PUSH1 0xA0 SHL SUB DUP5 DUP2 AND PUSH1 0x0 DUP2 DUP2 MSTORE PUSH1 0x20 DUP2 DUP2 MSTORE PUSH1 0x40 DUP1 DUP4 KECCAK256 DUP1 SLOAD PUSH1 0x1 DUP1 DUP3 ADD DUP4 SSTORE SWAP2 DUP6 MSTORE DUP4 DUP6 KECCAK256 ADD DUP10 SWAP1 SSTORE DUP5 DUP5 MSTORE DUP1 DUP4 MSTORE DUP2 DUP5 KECCAK256 DUP3 MLOAD PUSH1 0x80 DUP2 ADD DUP5 MSTORE DUP11 DUP2 MSTORE DUP10 DUP9 AND DUP2 DUP7 ADD DUP2 DUP2 MSTORE TIMESTAMP DUP4 DUP8 ADD SWAP1 DUP2 MSTORE PUSH1 0x60 DUP5 ADD DUP13 DUP2 MSTORE DUP6 SLOAD DUP1 DUP9 ADD DUP8 SSTORE SWAP6 DUP11 MSTORE SWAP9 DUP9 SWAP1 KECCAK256 SWAP4 MLOAD PUSH1 0x4 SWAP1 SWAP6 MUL SWAP1 SWAP4 ADD SWAP4 DUP5 SSTORE MLOAD SWAP4 DUP4 ADD DUP1 SLOAD PUSH1 0x1 PUSH1 0x1 PUSH1 0xA0 SHL SUB NOT AND SWAP5 SWAP1 SWAP10 AND SWAP4 SWAP1 SWAP4 OR SWAP1 SWAP8 SSTORE SWAP6 MLOAD PUSH1 0x2 DUP8 ADD SSTORE SWAP3 MLOAD PUSH1 0x3 SWAP1 SWAP6 ADD SWAP5 SWAP1 SWAP5 SSTORE DUP4 MLOAD DUP8 DUP2 MSTORE SWAP1 DUP2 ADD DUP6 SWAP1 MSTORE SWAP1 SWAP3 PUSH32 0xA67F791757F9612EBF4228CE64BA4FEB0A9EA7A3C1B1F6E046E3374E3348CF03 SWAP2 ADD PUSH1 0x40 MLOAD DUP1 SWAP2 SUB SWAP1 LOG3 POP POP POP POP JUMP JUMPDEST PUSH1 0x1 PUSH1 0x20 MSTORE DUP2 PUSH1 0x0 MSTORE PUSH1 0x40 PUSH1 0x0 KECCAK256 DUP2 DUP2 SLOAD DUP2 LT PUSH2 0x587 JUMPI PUSH1 0x0 DUP1 REVERT JUMPDEST PUSH1 0x0 SWAP2 DUP3 MSTORE PUSH1 0x20 SWAP1 SWAP2 KECCAK256 PUSH1 0x4 SWAP1 SWAP2 MUL ADD DUP1 SLOAD PUSH1 0x1 DUP3 ADD SLOAD PUSH1 0x2 DUP4 ADD SLOAD PUSH1 0x3 SWAP1 SWAP4 ADD SLOAD SWAP2 SWAP5 POP PUSH1 0x1 PUSH1 0x1 PUSH1 0xA0 SHL SUB AND SWAP3 POP DUP5 JUMP JUMPDEST DUP1 CALLDATALOAD PUSH1 0x1 PUSH1 0x1 PUSH1 0xA0 SHL SUB DUP2 AND DUP2 EQ PUSH2 0x5D1 JUMPI PUSH1 0x0 DUP1 REVERT JUMPDEST SWAP2 SWAP1 POP JUMP JUMPDEST PUSH1 0x0 PUSH1 0x20 DUP3 DUP5 SUB SLT ISZERO PUSH2 0x5E8 JUMPI PUSH1 0x0 DUP1 REVERT JUMPDEST PUSH2 0x5F1 DUP3 PUSH2 0x5BA JUMP JUMPDEST SWAP4 SWAP3 POP POP POP JUMP JUMPDEST PUSH1 0x0 DUP1 PUSH1 0x40 DUP4 DUP6 SUB SLT ISZERO PUSH2 0x60B JUMPI PUSH1 0x0 DUP1 REVERT JUMPDEST PUSH2 0x614 DUP4 PUSH2 0x5BA JUMP JUMPDEST SWAP5 PUSH1 0x20 SWAP4 SWAP1 SWAP4 ADD CALLDATALOAD SWAP4 POP POP POP JUMP JUMPDEST PUSH1 0x20 DUP1 DUP3 MSTORE DUP3 MLOAD DUP3 DUP3 ADD DUP2 SWAP1 MSTORE PUSH1 0x0 SWAP2 SWAP1 DUP5 DUP3 ADD SWAP1 PUSH1 0x40 DUP6 ADD SWAP1 DUP5 JUMPDEST DUP2 DUP2 LT ISZERO PUSH2 0x65A JUMPI DUP4 MLOAD DUP4 MSTORE SWAP3 DUP5 ADD SWAP3 SWAP2 DUP5 ADD SWAP2 PUSH1 0x1 ADD PUSH2 0x63E JUMP JUMPDEST POP SWAP1 SWAP7 SWAP6 POP POP POP POP POP POP JUMP JUMPDEST PUSH1 0x0 DUP1 PUSH1 0x0 DUP1 PUSH1 0x80 DUP6 DUP8 SUB SLT ISZERO PUSH2 0x67C JUMPI PUSH1 0x0 DUP1 REVERT JUMPDEST PUSH2 0x685 DUP6 PUSH2 0x5BA JUMP JUMPDEST SWAP4 POP PUSH1 0x20 DUP6 ADD CALLDATALOAD SWAP3 POP PUSH2 0x69A PUSH1 0x40 DUP7 ADD PUSH2 0x5BA JUMP JUMPDEST SWAP4 SWAP7 SWAP3 SWAP6 POP SWAP3 SWAP4 PUSH1 0x60 ADD CALLDATALOAD SWAP3 POP POP JUMP JUMPDEST PUSH4 0x4E487B71 PUSH1 0xE0 SHL PUSH1 0x0 MSTORE PUSH1 0x32 PUSH1 0x4 MSTORE PUSH1 0x24 PUSH1 0x0 REVERT JUMPDEST PUSH4 0x4E487B71 PUSH1 0xE0 SHL PUSH1 0x0 MSTORE PUSH1 0x11 PUSH1 0x4 MSTORE PUSH1 0x24 PUSH1 0x0 REVERT JUMPDEST DUP1 DUP3 ADD DUP1 DUP3 GT ISZERO PUSH2 0x6E9 JUMPI PUSH2 0x6E9 PUSH2 0x6C0 JUMP JUMPDEST SWAP3 SWAP2 POP POP JUMP JUMPDEST DUP1 DUP3 MUL DUP2 ISZERO DUP3 DUP3 DIV DUP5 EQ OR PUSH2 0x6E9 JUMPI PUSH2 0x6E9 PUSH2 0x6C0 JUMP JUMPDEST PUSH1 0x0 DUP3 PUSH2 0x723 JUMPI PUSH4 0x4E487B71 PUSH1 0xE0 SHL PUSH1 0x0 MSTORE PUSH1 0x12 PUSH1 0x4 MSTORE PUSH1 0x24 PUSH1 0x0 REVERT JUMPDEST POP DIV SWAP1 JUMP INVALID LOG2 PUSH5 0x6970667358 0x22 SLT KECCAK256 PUSH4 0x8F08D734 0x22 LOG3 0xE9 0x4D PUSH29 0x1B7E3A58E5F29CF5D494CFF80354134DDA6B1D147C5264736F6C634300 ADDMOD XOR STOP CALLER "},"methodIdentifiers":{"calculateReputationScore(address)":"0a8fa825","freelancerCredentialDetails(address,uint256)":"eb292b3e","freelancerCredentials(address,uint256)":"18635061","getCredentialCount(address)":"2d405995","getCredentialDetails(address,uint256)":"2c55eb23","getCredentialHashes(address)":"20aa0cf8","registerCredential(address,bytes32,address,uint256)":"83f30c27"}}}}}