{
  "_format": "hh-sol-artifact-1",
  "contractName": "EscrowContract",
  "sourceName": "contracts/EscrowContract.sol",
  "abi": [
    {
      "anonymous": false,
      "inputs": [
        {
          "indexed": true,
          "internalType": "uint256",
          "name": "projectId",
          "type": "uint256"
        },
        {
          "indexed": true,
          "internalType": "address",
          "name": "freelancer",
          "type": "address"
        }
      ],
      "name": "CredentialMinted",
      "type": "event"
    },
    {
      "anonymous": false,
      "inputs": [
        {
          "indexed": true,
          "internalType": "uint256",
          "name": "projectId",
          "type": "uint256"
        },
        {
          "indexed": false,
          "internalType": "bytes32",
          "name": "hash",
          "type": "bytes32"
        }
      ],
      "name": "DeliverableSubmitted",
      "type": "event"
    },
    {
      "anonymous": false,
      "inputs": [
        {
          "indexed": true,
          "internalType": "uint256",
          "name": "projectId",
          "type": "uint256"
        },
        {
          "indexed": false,
          "internalType": "string",
          "name": "reason",
          "type": "string"
        }
      ],
      "name": "DisputeInitiated",
      "type": "event"
    },
    {
      "anonymous": false,
      "inputs": [
        {
          "indexed": true,
          "internalType": "uint256",
          "name": "projectId",
          "type": "uint256"
        },
        {
          "indexed": false,
          "internalType": "bool",
          "name": "favorFreelancer",
          "type": "bool"
        }
      ],
      "name": "DisputeResolved",
      "type": "event"
    },
    {
      "anonymous": false,
      "inputs": [
        {
          "indexed": true,
          "internalType": "uint256",
          "name": "projectId",
          "type": "uint256"
        }
      ],
      "name": "ProjectCompleted",
      "type": "event"
    },
    {
      "anonymous": false,
      "inputs": [
        {
          "indexed": true,
          "internalType": "uint256",
          "name": "projectId",
          "type": "uint256"
        },
        {
          "indexed": true,
          "internalType": "address",
          "name": "client",
          "type": "address"
        },
        {
          "indexed": true,
          "internalType": "address",
          "name": "freelancer",
          "type": "address"
        },
        {
          "indexed": false,
          "internalType": "uint256",
          "name": "amount",
          "type": "uint256"
        },
        {
          "indexed": false,
          "internalType": "uint256",
          "name": "deadline",
          "type": "uint256"
        }
      ],
      "name": "ProjectCreated",
      "type": "event"
    },
    {
      "anonymous": false,
      "inputs": [
        {
          "indexed": true,
          "internalType": "uint256",
          "name": "projectId",
          "type": "uint256"
        }
      ],
      "name": "ProjectFunded",
      "type": "event"
    },
    {
      "inputs": [
        {
          "internalType": "uint256",
          "name": "_projectId",
          "type": "uint256"
        }
      ],
      "name": "approveCompletion",
      "outputs": [],
      "stateMutability": "nonpayable",
      "type": "function"
    },
    {
      "inputs": [
        {
          "internalType": "address",
          "name": "_freelancer",
          "type": "address"
        },
        {
          "internalType": "uint256",
          "name": "_amount",
          "type": "uint256"
        },
        {
          "internalType": "uint256",
          "name": "_reputationDiscount",
          "type": "uint256"
        },
        {
          "internalType": "uint256",
          "name": "_durationDays",
          "type": "uint256"
        },
        {
          "internalType": "bytes32",
          "name": "_deliverableHash",
          "type": "bytes32"
        }
      ],
      "name": "createProject",
      "outputs": [
        {
          "internalType": "uint256",
          "name": "",
          "type": "uint256"
        }
      ],
      "stateMutability": "nonpayable",
      "type": "function"
    },
    {
      "inputs": [
        {
          "internalType": "uint256",
          "name": "_projectId",
          "type": "uint256"
        }
      ],
      "name": "fundProject",
      "outputs": [],
      "stateMutability": "payable",
      "type": "function"
    },
    {
      "inputs": [
        {
          "internalType": "uint256",
          "name": "_projectId",
          "type": "uint256"
        }
      ],
      "name": "getProject",
      "outputs": [
        {
          "internalType": "address",
          "name": "freelancer",
          "type": "address"
        },
        {
          "internalType": "address",
          "name": "client",
          "type": "address"
        },
        {
          "internalType": "uint256",
          "name": "amount",
          "type": "uint256"
        },
        {
          "internalType": "uint256",
          "name": "reputationDiscount",
          "type": "uint256"
        },
        {
          "internalType": "enum EscrowContract.ProjectState",
          "name": "state",
          "type": "uint8"
        },
        {
          "internalType": "uint256",
          "name": "createdAt",
          "type": "uint256"
        },
        {
          "internalType": "uint256",
          "name": "deadline",
          "type": "uint256"
        },
        {
          "internalType": "bytes32",
          "name": "deliverableHash",
          "type": "bytes32"
        }
      ],
      "stateMutability": "view",
      "type": "function"
    },
    {
      "inputs": [],
      "name": "getProjectCount",
      "outputs": [
        {
          "internalType": "uint256",
          "name": "",
          "type": "uint256"
        }
      ],
      "stateMutability": "view",
      "type": "function"
    },
    {
      "inputs": [
        {
          "internalType": "uint256",
          "name": "_projectId",
          "type": "uint256"
        },
        {
          "internalType": "string",
          "name": "_reason",
          "type": "string"
        }
      ],
      "name": "initiateDispute",
      "outputs": [],
      "stateMutability": "nonpayable",
      "type": "function"
    },
    {
      "inputs": [],
      "name": "projectCounter",
      "outputs": [
        {
          "internalType": "uint256",
          "name": "",
          "type": "uint256"
        }
      ],
      "stateMutability": "view",
      "type": "function"
    },
    {
      "inputs": [
        {
          "internalType": "uint256",
          "name": "",
          "type": "uint256"
        }
      ],
      "name": "projects",
      "outputs": [
        {
          "internalType": "address",
          "name": "freelancer",
          "type": "address"
        },
        {
          "internalType": "address",
          "name": "client",
          "type": "address"
        },
        {
          "internalType": "uint256",
          "name": "amount",
          "type": "uint256"
        },
        {
          "internalType": "uint256",
          "name": "reputationDiscount",
          "type": "uint256"
        },
        {
          "internalType": "enum EscrowContract.ProjectState",
          "name": "state",
          "type": "uint8"
        },
        {
          "internalType": "uint256",
          "name": "createdAt",
          "type": "uint256"
        },
        {
          "internalType": "uint256",
          "name": "deadline",
          "type": "uint256"
        },
        {
          "internalType": "bytes32",
          "name": "deliverableHash",
          "type": "bytes32"
        }
      ],
      "stateMutability": "view",
      "type": "function"
    },
    {
      "inputs": [
        {
          "internalType": "uint256",
          "name": "_projectId",
          "type": "uint256"
        },
        {
          "internalType": "bool",
          "name": "_favorFreelancer",
          "type": "bool"
        }
      ],
      "name": "resolveDispute",
      "outputs": [],
      "stateMutability": "nonpayable",
      "type": "function"
    },
    {
      "inputs": [
        {
          "internalType": "uint256",
          "name": "_projectId",
          "type": "uint256"
        },
        {
          "internalType": "bytes32",
          "name": "_newHash",
          "type": "bytes32"
        }
      ],
      "name": "submitDeliverable",
      "outputs": [],
      "stateMutability": "nonpayable",
      "type": "function"
    }
  ],
  "bytecode": "0x608060405234801561001057600080fd5b5061114b806100206000396000f3fe6080604052600436106100915760003560e01c8063934b68b511610059578063934b68b51461019657806393a5bc41146101b6578063d919ff8a146101d6578063f0f3f2c8146101f6578063f8a518ed1461021657600080fd5b8063107046bd1461009657806334b25ee2146101225780633bcff3b0146101445780636c563abe146101635780638c1ae33b14610176575b600080fd5b3480156100a257600080fd5b506101056100b1366004610e66565b600060208190529081526040902080546001820154600283015460038401546004850154600586015460068701546007909701546001600160a01b039687169795909616959394929360ff90921692909188565b604051610119989796959493929190610e95565b60405180910390f35b34801561012e57600080fd5b5061014261013d366004610eff565b61022c565b005b34801561015057600080fd5b506001545b604051908152602001610119565b610142610171366004610e66565b6104fd565b34801561018257600080fd5b50610155610191366004610f34565b61069c565b3480156101a257600080fd5b506101426101b1366004610f84565b610911565b3480156101c257600080fd5b506101426101d1366004610e66565b610a41565b3480156101e257600080fd5b506101426101f1366004610fa6565b610c6d565b34801561020257600080fd5b50610105610211366004610e66565b610ddb565b34801561022257600080fd5b5061015560015481565b60015482106102565760405162461bcd60e51b815260040161024d90611022565b60405180910390fd5b600082815260208190526040902060048082015460ff16600581111561027e5761027e610e7f565b146102c45760405162461bcd60e51b815260206004820152601660248201527550726f6a656374206e6f7420696e206469737075746560501b604482015260640161024d565b81156103e157600061271082600301546127106102e19190611068565b83600201546102f09190611081565b6102fa9190611098565b60048301805460ff1916600317905582546040519192506000916001600160a01b039091169083908381818185875af1925050503d806000811461035a576040519150601f19603f3d011682016040523d82523d6000602084013e61035f565b606091505b50509050806103a15760405162461bcd60e51b815260206004820152600e60248201526d14185e5b595b9d0819985a5b195960921b604482015260640161024d565b82546040516001600160a01b039091169086907fcde916bd9d7a22898d8fc86b92ef660fa8dddb29c63944348dd33e5d9f1e3f9890600090a350506104bc565b60048101805460ff191660051790556003810154600090612710906104069082611068565b83600201546104159190611081565b61041f9190611098565b60018301546040519192506000916001600160a01b039091169083908381818185875af1925050503d8060008114610473576040519150601f19603f3d011682016040523d82523d6000602084013e610478565b606091505b50509050806104b95760405162461bcd60e51b815260206004820152600d60248201526c1499599d5b990819985a5b1959609a1b604482015260640161024d565b50505b827f5a87909bff68caaaaf0b3fd9c74eeccc928832f879315e5c6fb7a73612f26c0c836040516104f0911515815260200190565b60405180910390a2505050565b600154811061051e5760405162461bcd60e51b815260040161024d90611022565b600081815260208190526040812090600482015460ff16600581111561054657610546610e7f565b146105935760405162461bcd60e51b815260206004820152601f60248201527f50726f6a656374206973206e6f7420696e204372656174656420737461746500604482015260640161024d565b60018101546001600160a01b031633146105e65760405162461bcd60e51b815260206004820152601460248201527313db9b1e4818db1a595b9d0818d85b88199d5b9960621b604482015260640161024d565b600061271082600301546127106105fd9190611068565b836002015461060c9190611081565b6106169190611098565b90508034101561065d5760405162461bcd60e51b8152602060048201526012602482015271496e73756666696369656e742066756e647360701b604482015260640161024d565b60048201805460ff1916600117905560405183907f2301e0a2ad8f6e28a7fbb09e96f5c14e588fac346ed5ce607e1a018bc768864690600090a2505050565b60006001600160a01b0386166106f45760405162461bcd60e51b815260206004820152601a60248201527f496e76616c696420667265656c616e6365722061646472657373000000000000604482015260640161024d565b600085116107445760405162461bcd60e51b815260206004820152601d60248201527f416d6f756e74206d7573742062652067726561746572207468616e2030000000604482015260640161024d565b600083116107945760405162461bcd60e51b815260206004820152601f60248201527f4475726174696f6e206d757374206265206174206c6561737420312064617900604482015260640161024d565b60018054600091826107a5836110ba565b9091555060408051610100810182526001600160a01b038a1681523360208201529081018890526060810187905290915060808101600081524260208201526040016107f48662015180611081565b6107fe90426110d3565b815260209081018590526000838152808252604090819020835181546001600160a01b039182166001600160a01b03199182161783559385015160018084018054929093169190951617905590830151600282015560608301516003820155608083015160048201805492939192909160ff199091169083600581111561088757610887610e7f565b021790555060a0820151600582015560c082015160068083019190915560e09092015160079091015560008281526020818152604091829020909201548151898152928301526001600160a01b03891691339184917f022cbdd9511184d551c50ef4eb9f6cb10fd9d48ed05447898fc9aef4b50a0053910160405180910390a49695505050505050565b60015482106109325760405162461bcd60e51b815260040161024d90611022565b60008281526020819052604090206001600482015460ff16600581111561095b5761095b610e7f565b146109a05760405162461bcd60e51b8152602060048201526015602482015274141c9bda9958dd081a5cc81b9bdd08199d5b991959605a1b604482015260640161024d565b80546001600160a01b031633146109f95760405162461bcd60e51b815260206004820152601a60248201527f4f6e6c7920667265656c616e6365722063616e207375626d6974000000000000604482015260640161024d565b6007810182905560048101805460ff1916600217905560405182815283907fea08d73ec21e314c833367f84d0254b19b58b04a406976e98b59212fee57d8e5906020016104f0565b6001548110610a625760405162461bcd60e51b815260040161024d90611022565b60008181526020819052604090206002600482015460ff166005811115610a8b57610a8b610e7f565b14610ad05760405162461bcd60e51b8152602060048201526015602482015274141c9bda9958dd081b9bdd0819195b1a5d995c9959605a1b604482015260640161024d565b60018101546001600160a01b03163314610b2c5760405162461bcd60e51b815260206004820152601760248201527f4f6e6c7920636c69656e742063616e20617070726f7665000000000000000000604482015260640161024d565b60006127108260030154612710610b439190611068565b8360020154610b529190611081565b610b5c9190611098565b60048301805460ff1916600317905582546040519192506000916001600160a01b039091169083908381818185875af1925050503d8060008114610bbc576040519150601f19603f3d011682016040523d82523d6000602084013e610bc1565b606091505b5050905080610c035760405162461bcd60e51b815260206004820152600e60248201526d14185e5b595b9d0819985a5b195960921b604482015260640161024d565b60405184907f60d8df137e489b6216738e436244ca4700bd6d0c8371d3c8d9c80b54538111b990600090a282546040516001600160a01b039091169085907fcde916bd9d7a22898d8fc86b92ef660fa8dddb29c63944348dd33e5d9f1e3f9890600090a350505050565b6001548310610c8e5760405162461bcd60e51b815260040161024d90611022565b60008381526020819052604090206001600482015460ff166005811115610cb757610cb7610e7f565b1480610cdb57506002600482015460ff166005811115610cd957610cd9610e7f565b145b610d275760405162461bcd60e51b815260206004820152601c60248201527f43616e6e6f742064697370757465206174207468697320737461746500000000604482015260640161024d565b60018101546001600160a01b0316331480610d4b575080546001600160a01b031633145b610d885760405162461bcd60e51b815260206004820152600e60248201526d139bdd08185d5d1a1bdc9a5e995960921b604482015260640161024d565b6004818101805460ff19166001830217905550837f530164474dcf69694f78fe361d898adcd2d56d4828dce8e757ab95932af2a4da8484604051610dcd9291906110e6565b60405180910390a250505050565b6000806000806000806000806001548910610e085760405162461bcd60e51b815260040161024d90611022565b5050506000958652505050602083905250506040902080546001820154600283015460038401546004850154600586015460068701546007909701546001600160a01b039687169896909516969395929460ff909216939092909190565b600060208284031215610e7857600080fd5b5035919050565b634e487b7160e01b600052602160045260246000fd5b6001600160a01b038981168252881660208201526040810187905260608101869052610100810160068610610eda57634e487b7160e01b600052602160045260246000fd5b8560808301528460a08301528360c08301528260e08301529998505050505050505050565b60008060408385031215610f1257600080fd5b8235915060208301358015158114610f2957600080fd5b809150509250929050565b600080600080600060a08688031215610f4c57600080fd5b85356001600160a01b0381168114610f6357600080fd5b97602087013597506040870135966060810135965060800135945092505050565b60008060408385031215610f9757600080fd5b50508035926020909101359150565b600080600060408486031215610fbb57600080fd5b83359250602084013567ffffffffffffffff80821115610fda57600080fd5b818601915086601f830112610fee57600080fd5b813581811115610ffd57600080fd5b87602082850101111561100f57600080fd5b6020830194508093505050509250925092565b602080825260169082015275141c9bda9958dd08191bd95cc81b9bdd08195e1a5cdd60521b604082015260600190565b634e487b7160e01b600052601160045260246000fd5b8181038181111561107b5761107b611052565b92915050565b808202811582820484141761107b5761107b611052565b6000826110b557634e487b7160e01b600052601260045260246000fd5b500490565b6000600182016110cc576110cc611052565b5060010190565b8082018082111561107b5761107b611052565b60208152816020820152818360408301376000818301604090810191909152601f909201601f1916010191905056fea26469706673582212200fdc9fb0b544d2fcdb29e6be3337e11c5bd8ca9099a048f7f64942660c790a1464736f6c63430008180033",
  "linkReferences": {},
  "deployedLinkReferences": {}
}